:10000000809A0020D92600008BB40100C52600008C
:10001000C5260000C5260000C5260000000000001F
:100020000000000000000000000000001127000098
:10003000C52600000000000011290000C5260000B0
:1000400089290000F9380100892900008929000068
:1000500089290000892900008929000089290000D8
:1000600089290000892900008929000089290000C8
:1000700089290000892900008929000089290000B8
:1000800089290000892900008929000089290000A8
:100090008929000089290000892900008929000098
:1000A0008929000089290000892900008929000088
:1000B0008929000089290000892900008929000078
:1000C0008929000089290000892900008929000068
:0C00D0008929000089290000892900000E
:1000E00053B94AB9002908BF00281CBF4FF0FF319F
:1000F0004FF0FF3000F00CB8ADF1080C6DE904CE04
:1001000000F018F8DDF804E0DDE9022304B07047E0
:10011000704700BF034611F8012B03F8012B002A9A
:10012000F9D17047034613F8012B002AFBD1181AA6
:10013000013870472DE9F0478C468E46089E1546DB
:1001400004461946002B40F0D080724547D9B2FAD8
:1001500082F74FB1C7F120030EFA07FC20FA03F330
:10016000BD4043EA0C0CBC404FEA154EA8B2BCFBA4
:10017000FEF8230C0EFB18CC08FB00F943EA0C43F5
:10018000994528D9EB1808F1FF3204D2994502D9D4
:10019000A8F102022B44A3EB0903A4B2B3FBFEFCBB
:1001A0000EFB1C330CFB00F044EA0344A04214D9BC
:1001B0002C190CF1FF3304D2A04202D9ACF1020396
:1001C0002C44241A43EA02401EB1FC400023346050
:1001D0007360BDE8F0874246DDE76346F1E7002A39
:1001E00079D0B2FA82F3002B3FD01946C1F1200337
:1001F00002FA01F52EFA03F20EFA01FE20FA03F3D9
:1002000043EA0E034FEA154E00FA01F4B2FBFEFC7E
:10021000AFB20EFB1C201A0C0CFB07F842EA00429E
:1002200090455AD9AA180CF1FF3004D2904502D952
:10023000ACF102002A44A2EB08029BB2B2FBFEFC26
:100240000EFB1C220CFB07F743EA02439F4246D9F0
:10025000EB180CF1FF3204D29F4202D9ACF102023A
:100260002B44DB1B42EA004202E0AEEB0203012218
:100270004FEA154EAFB2B3FBFEFC200C0EFB1C3355
:100280000CFB07F840EA034398452AD9EB180CF118
:10029000FF3004D2984502D9ACF102002B44A3EB05
:1002A0000803A4B2B3FBFEFC0EFB1C330CFB07F7E8
:1002B00044EA0344A74216D92C190CF1FF3304D2A7
:1002C000A74202D9ACF102032C44E41B43EA0040EC
:1002D0000F46114678E71F2188E76046ABE7624684
:1002E000BFE76046DBE76346EFE7734506D916B91B
:1002F000002108466DE7C6E9000EF9E7B3FA83F777
:1003000087B9734501D3824207D8841A6EEB030381
:1003100001209C461EB900215BE73846FAE7C6E992
:10032000004CF8E7C7F1200CBB4022FA0CF51D4346
:1003300020FA0CF12EFA0CF30EFA07FE41EA0E0138
:100340004FEA154900FA07F4B3FBF9F81FFA85FEE6
:1003500009FB18300B0C08FB0EFA43EA00439A45E0
:1003600002FA07F240D9EB1808F1FF3004D29A459F
:1003700002D9A8F102002B44A3EB0A0389B2B3FB14
:10038000F9F809FB183308FB0EFE41EA03418E45DC
:100390002CD9691808F1FF3304D28E4502D9A8F18F
:1003A0000203294443EA0040A0FB0298A1EB0E019E
:1003B0004145CE46434602D306D14C4504D2B9EB63
:1003C000020E68EB05030138002EA4D0B4EB0E0238
:1003D00061EB030101FA0CFC22FA07F34CEA030378
:1003E000F940C6E9003196E74046C5E74346D9E7FC
:1003F000F7B50022114640F6034004F081FA0446A6
:10040000002853D104F0C0F9214601AA41F20300AB
:1004100004F076FA0446002848D1019A254DD168A7
:10042000D1F80100D1F8051005F1780303C3104697
:1004300002F070FD214601AA41F2010004F060FAC9
:10044000044698BB0198C3685A7885F86F205A888B
:10045000A5F872201A7985F87020B3F80720A5F85E
:100460007420B3F80530A5F8763002F053FD21462C
:1004700001AA41F2020004F043FA0446B0B9019F18
:10048000FA6805F18006531C4132186859683446F1
:1004900003C4083393422646F7D1384602F03AFDAA
:1004A00095F87C305F0607D46FF01204204603B045
:1004B000F0BD00BF3000002001AA002142F203007D
:1004C00004F01EFA04460028F0D1019BBA4EDA6807
:1004D000D2F80100D2F8051003C6184602F01AFD42
:1004E000214601AA42F2020004F00AFA044600285A
:1004F000DCD1019CE368B3F8012091B249B1D9780D
:1005000039B1A5F8FC20DA78114606F120001FF079
:100510009CFF204602F0FEFC95F87C601F2316F03D
:100520002006A5F8103119D14FF0FF304FF0FF3100
:1005300004F052F90446002800F0378102210C3003
:100540001BF06EF80123037046702146324640F6D8
:100550006D4004F0D5F904460028A7D195F89C30E9
:100560001E0712D501AA002142F21C0004F0C8F9AE
:10057000044600289AD10198C368D3F80120D3F823
:100580000530C5E9382302F0C5FC95F8D8309C0643
:1005900025D50DF1020168461BF0D2FD0446002866
:1005A00084D14FF0FF304FF0FF3104F015F90646CB
:1005B000002800F0FA8004210C301BF031F8BDF85F
:1005C00000300380BDF8023043802246314642F2BB
:1005D000240004F095F9044600287FF467AF95F8ED
:1005E000D830580610D501AA002142F22A0004F0A2
:1005F00087F9044600287FF459AF0198C3685B78F7
:1006000085F8123102F086FC4FF0FF304FF0FF31D9
:1006100004F0E2F80646002800F0C78008210C30FC
:100620001AF0FEFF95F8D84014F0400F40F2022374
:1006300008BF0323A10795F8D9104CBF43F02C0342
:1006400043F00C03A70648BF43F0400311F0090F25
:1006500018BF43F4006304F001040246002143EA9A
:1006600004101BF046FC0022314642F2010004F067
:1006700047F9044600287FF419AF95F87C30B5F8A7
:10068000FC10980679D4C9B901AA41F2050004F01A
:1006900037F9044600287FF409AFB5F8FC30019C17
:1006A0004BB9E368B3F80120A5F8FC209A884348C9
:1006B00011461FF0CAFE204602F02CFC4FF0FF301E
:1006C0004FF0FF3104F088F8044600286DD008216F
:1006D0000C301AF0A5FF95F8D830D907024651D44E
:1006E00037484FF000511BF004FC2146002240F631
:1006F000014004F005F9044600287FF4D7AE014616
:1007000001AA4FF6014004F0FBF8044620BB019813
:1007100002F000FC214601AA4FF6024004F0F0F876
:100720000446C8B90198C368B3F80130A5F8C130D0
:1007300002F0F0FB95F8C1305A070DD501AA214609
:100740004FF6034004F0DCF830B90198C3685B78D9
:1007500085F8C03002F0DEFBEB79BBB904F084FE13
:10076000044600287FF4A2AE06F0FCF804460028F8
:100770007FF49CAE04F06AF898E600299ED16FF0F1
:10078000040493E60AA1D1E90001ACE72E78002E1B
:10079000E4D195F8C1309B0628D54FF0FF304FF0DB
:1007A000FF3104F019F8044660B96FF068047DE683
:1007B0009088000200800020080100203001002005
:1007C0001088000206210C301AF02AFFD5F80130FB
:1007D0000360084B9B888380214632464FF60640D3
:1007E00004F08EF804460028B8D05FE66FF0850468
:1007F0005CE600BF310000202DE9F843D0E907385E
:10080000856903EB08042F34A5420F46164619D814
:10081000DFF86C80A3FB080117A3D3E90023FFF7DF
:100820005FFC0346601BA0FB080123F07F4412A37A
:10083000D3E90023FFF754FC20F07F403C60306098
:10084000BDE8F883DFF838900BA3D3E90023A5FBBC
:100850000901FFF745FC20F07F440A480A2106A35E
:10086000D3E90023E8FB0901FFF73AFC20F07F40C1
:100870003C603060BDE8F8838D49FD1A0700000038
:1008800000CA9A3B00166BF1002800F051812DE957
:10089000F04FCB4C94F85E2012F001058DB040F083
:1008A0003481607EFF2300F00300A37612F064FC25
:1008B00094F85E00420700F12C81627F94F82930A1
:1008C00004EB820204EB8303166AD3F82C8086B112
:1008D000BB4831460DF048F833785B0605D5062154
:1008E00008F024FF002800F05581B54841460DF07E
:1008F0003BF8337813F00E0F40F0918063691BB121
:100900000C200DB0BDE8F08F0AF026FF81460028CC
:1009100000F049810AF02CFF8246002800F0408157
:100920000DF046FA0546002800F05A81D0F88800FC
:100930004FF6FF73AB8405F1100B002800F03581F2
:1009400005F17C0205F1780108F0FCFEB5F876307F
:1009500023F4EF6323F0070343F48C7343F00103A4
:10096000A5F8763095F8373003F03F0363F07F0346
:1009700085F8373095F88E3023F0070385F88E30F0
:1009800095F83C3023F00F03002785F83C304FF4F6
:10099000C023C5F88E312846C5E91277C5F888709E
:1009A000A5F88C7085F839706F85C5F82E702F65A5
:1009B000A5F86071A5F89471A5F88A710FF08CF90B
:1009C00085F86471C5F868910DF0B6FC95F89C3116
:1009D00060F3020385F89C310DF0B4FC95F89C316E
:1009E00060F3C50385F89C3195F8623167F34103E4
:1009F000012185F8623128460EF046F805F1E00045
:100A00000EF08AFFC4E9159AC4F814B0C5E902775C
:100A10002F702D6113F01AFC002840F0BD80237E5A
:100A20000121C3F342030DF12B008DF82B3009F0A7
:100A30002BF8024600287DD0414630460CF08CFD54
:100A4000604A614BB4F85C800721E0FB023100256D
:100A50001846C4E9025558A3D3E900232570FFF7CF
:100A60003FFB60600AF0A6F900F10907B8F1000F3A
:100A700007D1357805F00F05A5F10105B5FA85F523
:100A80006D09207E636865F3000010F00105207693
:100A900057D04E4A09920020106002254C4ADFF8D8
:100AA000348104930BAE019305920321CDE902003A
:100AB000069400903B46CDF81C8008962A460B957C
:100AC0000AF09CF831460AF0DDFE98BB42490591D8
:100AD0004AF2D8330093CDE90300CDE90100CDF807
:100AE0001C80089606943B46012203210B950AF0D0
:100AF00069F831460AF0C6FEE0B994F85E3001208C
:100B0000034384F85E3012F019FB00200DB0BDE8FD
:100B1000F08F2A4604F15F01C0F3C00012F064FCBC
:100B2000FF28A0763FF4C9AE284612F03FFBC4E68A
:100B30000CF0AABC6369002B3FF4E2AE0CF07AFC27
:100B4000DEE6224A2548049303F2471306940295F1
:100B500091211360A8FB000301FB08311D4B079393
:100B60001B4B05934FF6FF7309924FF00208039356
:100B70000BAE11A3D3E90023CDF82C800896FFF724
:100B8000AFFA3B46CDE900504246284603210AF021
:100B900035F8AEE71220B4E60CF04CFC0320B0E6CA
:100BA00048460AF0DFFD0720ABE605F18000C5F8F6
:100BB0008800C5E6AFF300808D49FD1A07000000EC
:100BC000F42A002000CA9A3B8C49FD1AE82A00202A
:100BD000D1D50000B1AE0000F5D20000002AE784B4
:100BE00050460AF0CBFD48460AF0BCFDDBE700BFEB
:100BF00070B5037E8AB0C3F342030D46044601215B
:100C00000DF1230016468DF8233008F03DFF3146E4
:100C1000024628460CF0A0FC1D4A1E4B0721E0FBB3
:100C20000231184618A3D3E90023FFF759FA636885
:100C30009842054621D21B1A00220192164A0293BD
:100C4000164BA21AA3FB02320221520900230A44C6
:100C500009AE099112490591CDE9033303210696A6
:100C6000D2B2009318460AF01FF831460AF00AFE85
:100C700038B9656000200AB070BDFBD9C21A0023E4
:100C8000DBE70C200AB070BD8D49FD1A070000009B
:100C900000CA9A3B8C49FD1AF42A00204FECC44E3E
:100CA000B1AE0000000000002DE9F04F05468BB00A
:100CB0008B46012002219946144615F0A5F8002222
:100CC00002218246012008F091FD2F494FF4D47291
:100CD000284608F017FDC61C2C4B0093F6B2019570
:100CE0004B463246012100200AF02CF810F0FD0F8F
:100CF00042D1274BA4FB0348204621A3D3E900237C
:100D00004146FFF7EDF9089506956B680493214B72
:100D100020F07F47A7FB0331E01A1F4B07934FF0EA
:100D200007021E4B059302FB07114FF6FE7368EB9B
:100D3000010103934FF47A720023FFF7D1F9CDF844
:100D400000B0CDE901704B4632460121002009F088
:100D500039FF10F0FD0F0DD1BAF1000F02D10BB029
:100D6000BDE8F08F0122022110460BB0BDE8F04F24
:100D700008F03CBD00DEEFE700DEBAE7AFF300802D
:100D80008D49FD1A07000000D00D00206DDC000029
:100D900000CA9A3B8D49FD1A55DC0000F52501007B
:100DA0002DE9F0418468A28C4FF6FF739A428CB013
:100DB00000F0C080054620460FF00AFA2B7D012B7B
:100DC00000F0E680022B00F0B88033B994F88E3042
:100DD00003F01803182B00F01C8194F86471002FA5
:100DE00040F0AE802B8AE68D94F93720CDE90A7762
:100DF000002B00F0AC80002AC0F221810023A4F86F
:100E00009031AB7CA28D03F00303551C012BADB2D6
:100E100000F0BA80B4F89431002B00F0BF80AB42F0
:100E200040F237815B1B9BB2062BA4F894314FF044
:100E300000028CBF00230123E2851F4694F83C206A
:100E400063F3820284F83C2029460DF127022046F4
:100E50000EF07EFF743000F01681B4F88E312BB1A5
:100E6000AB4240F2BF805B1BA4F88E31B4F88A31EC
:100E70002BB1AB4240F2C6805B1BA4F88A31E58DF2
:100E800017B9AE4200F0AC800135ADB294F8D13064
:100E900013F0010609D1DDE90AC3B3BBBCF1000FB1
:100EA00000F0E9801E46194630E094F9372023F01F
:100EB0000103002A84F8D130C0F28A8094F87600C9
:100EC000C0F3C00100F0070013F03EF8B4F86E2044
:100ED000B4F86C301344E28B03F23F13134418440C
:100EE0008D4A8E4B0721E0FB0231184688A3D3E9D7
:100EF0000023FFF7F5F8616820F07F408142DDE9CB
:100F00000AC380F0B280461A60600021A28C246976
:100F10000694CDE903570332814D0291CDE900C615
:100F2000D2B201210020059509F0BEFE10F0FD0FA0
:100F300040F0B4800CB0BDE8F0813D2784F86471C6
:100F4000394620460CB0BDE8F0410DF0B5BA002A94
:100F5000B8BF84F8D570AB7CA28D03F00303551C99
:100F6000012BADB210D0B4F89031002B3FF452AF4A
:100F7000AB4240F29A805B1BA4F89031B4F89431F4
:100F8000002B7FF44CAF59E70023A4F8943155E7C8
:100F90000023A4F88E31A4F88A311EE7E38C052BD8
:100FA0008BBF40F2E2424FF4FA725A4303FB022233
:100FB000B4F8923142F2107101FB0323013BB3FB01
:100FC000F2F39BB2A4F89431002B7FF428AF35E7FD
:100FD00094F87700012100F0070012F0B7FF75E7E1
:100FE0003D4653E70AF00AFC0146002864D000237E
:100FF000A4F88E31A38CC3801B23037100680AF010
:10100000CFFB33E70023A4F88A3120460EF032FFED
:1010100035E7218DB4F88C218B1D9A42C4BF931FF4
:101020005B1AB4F88811CCBF9BB21346994256D0D4
:10103000A4F88831A4F88A31A4F88E21CDE694F87A
:10104000D530002B3CD0013B84F8D53004F1E008CA
:1010500040460EF0A3FC002855D040460EF09EFC02
:10106000002842D00023E385C8E6091A6060A3BBCC
:1010700051EA0C021ED115B9002F3FF45BAF0026D8
:101080003146334642E79DF8271020460DF014FA0A
:1010900050E7082120460DF00FFA4BE70AF01CFC40
:1010A00084423FF447AF00DE44E73E2120460DF086
:1010B00003FA3FE71E4629E70123A4F88E31D5E65F
:1010C0000AAA0BA92846FFF797FBDDE90A23134379
:1010D000BCD0237884F8D530B8E7002616E7B4F8FA
:1010E0008E1100297FF479AEA4E70246D4E91E01EF
:1010F00008F040FB0028B5D194F83C301B0744BFF2
:10110000238DE3857AE6FF200DF098F9A5E700BF6F
:101110008D49FD1A0700000000CA9A3B8C49FD1A50
:10112000ADDC0000000000002DE9F04F87B0B0F802
:101130006071BDF84C900091CDE90423B0F82431E2
:10114000BDF840A01F44BFB20446A7EB090390F8C6
:101150007600D4F81C819EB2BDF844300193C0F3F0
:10116000C001BDF84830039600F00700029312F06A
:10117000EBFEE58C052D40F2A38015FB06F5ADB224
:1011800040F2E24BBAF1050F40F28E80B4F86E20C7
:10119000B4F86C30134403F2D5130344764A77480D
:1011A0000721E3FB02014FF09613E36196232384AA
:1011B0006FA3D3E90023FEF793FF564620F07F404C
:1011C00040F2E2430BFB05F203FB06F6531E3344E9
:1011D000B3FBF6F31FFA83FB60600BFB06F0824261
:1011E0005D4653D26449801AA0FB010160A3D3E994
:1011F0000023FEF775FF20F07F408044B4F82421DF
:10120000B4F86031A9EB07094D44ADB213442B4447
:10121000A4F86031638D13441D4494F8373065851C
:10122000DB0955D100DE00273546019B2385029B53
:10123000A4F8923131462046A4F826A00EF0B4FD61
:101240004F4B218D3344881DB3FBF6F39AB2904285
:10125000A4F88C2104D2C1F57F41FA310A4492B23C
:10126000009BA4F8882113B10023A4F894314346CD
:101270002A4639462046FFF717FD94F8623143F0BD
:10128000010384F8623107B0BDE8F08F121A3A48C2
:10129000A2FB000136A3D3E90023FEF721FF20F0D3
:1012A0007F40A8EB0008A9E74FF096130AF101066A
:1012B000E36196232384B6B20A204FF4FA7381E7E0
:1012C000039B013515FB03F5ADB24FF4FA7B59E7EB
:1012D000216CA36C284F01FB0233039A01FB1233EC
:1012E000A3640023C4F8DC3013F002F8054694F838
:1012F000D400C0F3420012F0FDFF054406FB05F5E3
:10130000204B1E4805F5742505F23F25A3FB053546
:10131000AD0CA36C25640BFB05FB72085B44963A8D
:10132000934228BF1346C4E91123049B40F2E249CB
:1013300009FB03F307212365EBFB07010CA3D3E9AA
:101340000023FEF7CDFE104B059AA8EB0008A3FB87
:101350000230800A09FB00F0A0FB070104A3D3E9D7
:101360000023FEF7BDFE751B20F07F475DE700BF41
:101370008D49FD1A0700000000CA9A3B8C49FD1AEE
:101380007FC3C90183DE1B435917B7D1000000009A
:101390002DE9F04F0D46166895F81180096814463E
:1013A000027FD1F8009093B08346C2F38012D0F848
:1013B0001E008DF83720B8F1FF0FBBF822201090E7
:1013C000ADF8442057D110AB93E803000E90ADF870
:1013D0003C105A46BBF82E1052F82EAB9278A272EF
:1013E0002181DBF82A206260DBF83A20C4F8222051
:1013F00004F122009BF83E200271052108F044FB15
:1014000094F8272000F03F0060F3050284F82720BD
:101410009BF83F20C2F3040184F82810BBF8341075
:10142000E182012802F01F0289B20AD91B3202F0C0
:101430001F020B2A05D8063989B240F67A4291423A
:1014400025D90021C9F8081094F82C2061F3000276
:1014500084F82C20DBF80C400125504659468BF8C7
:1014600004500AF091F92068257121460AF098F994
:1014700013B0BDE8F08F0EAA0DF13701404611F010
:10148000BBFB9DF8372002328DF83720A1E72A6890
:1014900000215160BBF83620E78A228340F2E24304
:1014A00003FB07F73046BBF832300B930EF090FC8D
:1014B0009BF83F2096F8D410520962F3430186F856
:1014C000D41012F015FF0A9096F8D400C0F3420031
:1014D00012F010FF0A9A104407FB00F0AE4A00F524
:1014E000742000F23F20A2FB00207A08800C963A7C
:1014F000206362639BF8312040F2E24303FB02F277
:101500006264BBF83820A6F89221394630460EF0C6
:101510004BFCA24AA249C6F898113A44B2FBF7F232
:1015200090B2A6F88C01218B01F1060C604504DD18
:10153000C1F57F41FA31014488B25A46A6F88801C4
:1015400012F81C3FC3F34013D2070A9300F1158130
:101550004FF48072ABF81C2099F81A0012F078F85A
:10156000002800F0EA80DBF82420CBF82B20BBF821
:101570002820ABF82F20B8F1FF0F00F0F880BDF85D
:1015800044201098ABF82920CBF825009DF837208F
:101590008BF81E200E98BDF83C20CBF81F00ABF84E
:1015A0002320E28AABF83220228BABF83420B6F845
:1015B0009221ABF8362096F8D420C2F342028BF881
:1015C000382030460CF000FCA082ABF80600D5F8BD
:1015D0000480504659460AF0D7F81C23A28A88F89E
:1015E00004300A9BD8F800A0A8F80620002B40F091
:1015F000B180DDF828B088F81CB0414650460AF0AA
:10160000CFF894F86700B4F85CA0B4F85E800121CC
:1016100000F0070012F09AFCD04408F2D51808EB4D
:1016200000038246DFF87C815F480721E3FB080165
:101630004FF09613C4E9033355A3D3E90023FEF713
:101640004FFD20F07F407060EB680B98226B40F2FA
:10165000E24101FB003404F2B3440221A41A012048
:10166000BF1A002208F0C2F848460CF03BF9A4EB80
:101670000A0447A3D3E900238246A4FB0801FEF72E
:101680002FFDCDF80490AB684849009120F07F48C9
:101690000AF10202363BD2B243440121002009F094
:1016A00051FB01286BD099F81830DB074AD430463B
:1016B0000CF08AFB3B4CA7FB044935A3D3E900237C
:1016C000834649462046FEF70BFDAB68384A079231
:1016D000A3F1360A374B069620F07F47A7FB03316C
:1016E000E01A354B05934FF4F8730893736804932D
:1016F0004FF0070303FB071169EB010100244FF4CE
:101700007A7200230394FEF7EBFC0BF10305EDB2B4
:10171000CDE90170CDF8008053462A4601212046CC
:1017200009F050FA10F0FD0F2FD1012202211046CE
:1017300008F05CF813B0BDE8F08FCBF82B00ABF8E5
:101740002F0018E70023012200931846114609F0E4
:10175000C3FAACE794F8273043F0400384F827300D
:10176000201D11F035F84FF0010B208543E70021D3
:10177000CBF82510ABF8291008E700DEE8E60AF000
:10178000ABF881458FD000DE8DE700DECDE700BFEE
:101790008D49FD1A0700000083DE1B437FC3C9018A
:1017A000404B4C0000CA9A3B8C49FD1A7D26010033
:1017B000CD2501008D49FD1AF5250100000000002E
:1017C0002DE9F04F8DB0484E484D824609F0F2FAAF
:1017D000F168074609F0F0FA7168F76040A3D3E9B1
:1017E00000230446A1FB0501FEF77AFC20F07F43AD
:1017F0009C4257D30DF12F010DF12E000AF02EF867
:10180000DFF8E8803568A5FB085935A3D3E9002344
:1018100028464946FEF764FCCDF818A004467068D7
:10182000334B0593A0FB08012DA3D3E900234FF010
:101830000008CDE90788FEF753FC2E4BCDF80C804D
:1018400024F07F44A4FB033120F07F40072202FBF9
:1018500004110490E81A69EB01014FF47A72002335
:10186000FEF73EFC9DF82FB09DF82EA0CDF800802D
:10187000CDE901403B465A465046032109F0A2F902
:1018800010F0FD0404D06FF08B000DB0BDE8F08FB8
:1018900019481A4A002316F06BFA90B930690DB056
:1018A000BDE8F08F30680EA3D3E90023A0FB05014B
:1018B000FEF716FC20F07F41384609F07DFA074616
:1018C00098E79DF82F209DF82E00009423460321D1
:1018D00009F002FA6FF07300D7E700BFAFF30080A2
:1018E0008D49FD1A070000000011002000CA9A3B34
:1018F000913801008D49FD1A503B0020447B0B00BC
:1019000038B50F4D044609F055FAA96809F054FAA4
:10191000696803460B48B3FBF4F4A1FB00011C44C7
:1019200005A3D3E90023FEF7DBFB20F07F408442D0
:1019300094BF0020012038BD8D49FD1A070000002A
:101940000011002000CA9A3BF0B5C468636883B0F8
:101950000546002B54D113F0A5FD002013F0E8FD3F
:101960000021084613F0D6FD00222521082013F09F
:101970003BFE414B019301A813F022FE3F4940F288
:101980005B6013F0D3FE237AC3F3420262F30613C3
:101990002372204612F03CFE11F0E2FE637A03F05F
:1019A000030348BBFBB927682E68384612F086FA55
:1019B00006446A6806F10901012013F0FFFF14F0E4
:1019C000BDF820460BF09AFF811C3246C9B238465A
:1019D00012F076FA054600BB204612F04BFAD0B959
:1019E000002003B0F0BD012011F09EFB4178821C65
:1019F000007813F083FFD6E7181E18BF0120F3E725
:101A000093F82C309B07A6D01D48214613F01EFDED
:101A100013F036FEE4E700DEE2E71A4A1A491B48F3
:101A200040F2114319F0A5FA194B0721A5FB030356
:101A300001FB05310EA3D3E90023FEF751FB154945
:101A40000246154819F095FA002585F31188BFF371
:101A50006F8F0323184602DF1048214613F0F6FC6F
:101A600013F00EFE6FF08B00BBE700BFAFF30080FA
:101A700000CA9A3B00000000D6BE898E555555001D
:101A800005400100A8270200F42702007027020089
:101A90008D49FD1A40290200F82702000143010088
:101AA0002DE9F043C468A28A4FF6FF739A4283B0CF
:101AB00000F0FD80064613F05FF83389628B208CBE
:101AC00094F82710A3831A4492B2104480B2431CA6
:101AD00023840023638301F03F034906E28300F17E
:101AE000A48094F82810009304F1290004F1220343
:101AF00010F030FE0546D4E90C31A26BA08BA36335
:101B000003FB0022E36B8A4294BF9B185B188B4255
:101B100028BF0B46626CE363236C94F867101A4489
:101B200094F82C3061F306130021C4E9101294F8E4
:101B30007E2084F82C3012F0040200F0898013F02B
:101B4000B1FC002013F0F4FC201D13F039FD2389B3
:101B5000A17A40F25B6043EA014113F0E7FD2846B9
:101B600012F0BEF92146584813F070FCA08913F01A
:101B700019FF94F8662094F86700C2F3C0030021AF
:101B800002F0070200F0070013F036FE204613F0C3
:101B90008DF8D4F800803768404612F08FF907447A
:101BA000726807F10901002013F008FF814613F065
:101BB00099FF002013F0B0FFE36B94F8670003F186
:101BC0002F02636C012100F0070003EB420513F0C4
:101BD00049FD4D44054494F8670000F007000228D1
:101BE00034D004280CBF4FF4BC73282301211D44BA
:101BF00013F03AFD284413F067FFA18A03313A46F7
:101C0000C9B2404612F05CF90546A8B1B37A13F0A8
:101C100002062BD000252D48214613F017FC13F0A7
:101C20002FFD284603B0BDE8F083218D04F1220288
:101C300010F0D2FD05465EE7204612F01BF90028A1
:101C40003CD10025284603B0BDE8F0831823CDE73A
:101C5000D4E91A0107F08EFD00287FF470AF94F8E4
:101C60007E3043F0040384F87E3068E7184A19494F
:101C700019484FF4AC7319F07CF918480721A5FBFB
:101C8000000301FB05310EA3D3E90023FEF728FA78
:101C900013490246134819F06CF986F31188BFF313
:101CA0006F8F0323184602DF6FF08B05B3E70E48F2
:101CB000214613F0CBFB13F0E3FCC2E700DEC0E7E4
:101CC00000CA9A3B00000000D14E0100E13F010034
:101CD00024280200F4270200702702008D49FD1A13
:101CE0004C290200F82702000540010070B592B0AF
:101CF0000023012603930296CDF80F30014620B150
:101D0000114819F029F912B070BD104D104819F0A2
:101D100023F90FCD05AC0FC42B6823600D490E4B82
:101D20000096324605A803F0EDFB014608B10B48CA
:101D3000E7E702A903A803F03FFA03A90AA802F003
:101D40002BFA07480AA9DCE70A34020070210200D6
:101D50002A340200F0210200E8210200413402008E
:101D600067340200F8B5204819F0F6F81F4E3046E7
:101D70001EF045FA0446002831D03269B168136874
:101D800043F4003313600B68194A11213046984719
:101D9000002824DB174802F02FFF051E19DB164D23
:101DA000164FB3684FF400315B69304698470028FE
:101DB00018DB84F0010414F0FF040CBF29463946F7
:101DC0000F4819F0C9F800214FF400401EF02AFD19
:101DD000E7E70C48294619F0BFF82846F8BD6FF030
:101DE0001205FAE70025F8E791340200D01E020040
:101DF00001000600ED1C00008D3402008A34020050
:101E0000A73402000A34020008B5024819F0A4F809
:101E1000002008BDB6340200014B1B68184700BF04
:101E200090010020014B1860704700BF9001002016
:101E300030B5044685B00D461022002168461FF0DB
:101E40006EFF02238DF802302A46044B019321468F
:101E5000684618F041FC05B030BD00BF191E0000F7
:101E600008B50446EFF31183202383F31288BFF3F0
:101E70006F8F15F099F8204601F092F8024819F09A
:101E80006BF819F017FBFCE7F13402002DE9F0477D
:101E9000058B0446280717460CD501290CBF45F0D1
:101EA000100545F02005258387F31188BFF36F8F58
:101EB000BDE8F087022905F0070540F09480204630
:101EC00019F07FF8052864D801A353F820F000BF6B
:101ED000A91E0000E71F0000931F0000551F00000F
:101EE0006F1F0000811F000001F007035A1F012A25
:101EF0001FD8002221F00701062BD4F8008089B2F8
:101F0000C4E9002209D1434603E0628B01326283B7
:101F10001B68002BF9D141F002012183204619F002
:101F200050F84FF0000900286DD041F020012183C6
:101F300069E0042B0AD121F0070189B221832046F0
:101F400019F03FF810B141F0200121834FF0000853
:101F5000C14658E02369D3F80090238B23F0070390
:101F600043F0060323834FF0000846464BE0236905
:101F7000D3F80490238B23F0070343F00403F1E725
:101F80002369D3F80890238B23F0070343F005035C
:101F9000E8E74FF00008C146E7E7012243F00803F5
:101FA000238387F31188BFF36F8F002A3BD1B8F1E9
:101FB000000F4AD1B9F1000F02D02D492046C84781
:101FC000EFF31187202383F31288BFF36F8F238BE6
:101FD00023F008039BB22383D9063FD523F01002D8
:101FE000228303F007056669218B002EBFF67CAFC4
:101FF0000023D4F8008021F00701C4E9003341F048
:10200000010121839946238B03F0070AAA4502D0D8
:10201000A268002AC1D1B8F1000F02D1B9F1000FB6
:10202000DAD00022BAE7A1680029C0D00D680029E3
:10203000BDD04F68334652462046B8471DB12B6885
:1020400029461D46F3E72B46FAE7414633465246FA
:102050002046D8F8008018F0E0FFA8E79A067FF540
:1020600023AF23F02002228303F0070527E700BFF8
:1020700047B00100014B036000207047F8210200C7
:1020800070B5104B1C680D46B4B10F4B1968002396
:102090008B4202DB6FF0010070BD224612F8106B1C
:1020A000864202D001331446F2E7E0681EF0A7F83A
:1020B00028B12C600020EFE76FF00C00ECE76FF028
:1020C0001200E9E794010020F82102002DE9F7430E
:1020D0000D46DDE90A8791461E46044620B96FF099
:1020E0000D0003B0BDE8F0830029F8D0002AF6D037
:1020F0008B680846DB6898470368B6FBF3F203FB7E
:102100001262002AEBD1B8FBF3F203FB1282002A21
:10211000E5D1002FE3D0B7FBF3F103FB11710029E8
:10212000DDD117EB080FDAD2C4E90096C4E90587C0
:102130002161A160E560036823620C9BE361437940
:1021400084F82430CDE900616A46074928461CF02E
:102150004AFC019A002AC2D0D4E905310B449A42C4
:10216000BDD30020BDE700BF83B2010010B5DFF88A
:1021700024C086B04FF42814CDE904C40824029486
:1021800004AC0194BDF8204000941BF0A6FC06B0FE
:1021900010BD00BF1800280080B505460E46174642
:1021A000984616F001FC034600F000FCDFF818909A
:1021B000044649F80030424630463946A84754F8AC
:1021C000090000F08FFB00BF0800000008B50348BD
:1021D000034A0021121A19F050F908BDC006002068
:1021E000604800200748084A084908B5121A19F043
:1021F00046F90748074A0849BDE80840121A19F08D
:102200003EB900BF00000020C0060020943F02003D
:102210000000002000000020943F020038B5054671
:102220000C4699B1D1E901230F48096818F094FED2
:10223000D4E90423E1680D4818F08EFEE1690C48EA
:1022400018F08AFEA1690B4818F086FE012D05D111
:10225000EFF305810848103918F07EFE2146284624
:10226000BDE8384015F0EABA1A3502004A350200D6
:102270007A3502008A350200B935020030BFFFF717
:10228000FDBF00BF2DE9F0410B4EDFF8308006EBBB
:102290000807CC1B05463246094920461FF018FDA9
:1022A000A01942460021083C1FF039FD2C6707F1B8
:1022B0000800BDE8F08100BF000000000800000039
:1022C000682102002DE9F843324D804632488946A4
:1022D000174618F041FEAB6ADE0622D52F4818F0EB
:1022E0003BFE1124AB6A1D0703D52D4818F034FEC0
:1022F0001224284DAB6A980715D52A4818F02CFEF1
:102300006E6BAB6A190642D52748314618F024FE99
:10231000B9F1000F03D0AB6A23F08003AB62132442
:1023200003E01024DEE76FF015061A4DAB6ADA07FA
:1023300003D51E4818F010FE1424AB6A9B0603D583
:102340001B4818F009FE1524124B9A6AD50602D4D0
:102350009A6A90070AD55B68190507D54146304649
:1023600000F076FA10B180F309880224094B9A6ACA
:10237000920642BF5A6A22F400525A629A6A42F0A6
:10238000FF029A6200233B702046BDE8F8836FF09D
:102390001506C4E700ED00E0CD350200E43502008B
:1023A000183602002C360200453602005C36020068
:1023B0007C36020010B51D4C1D4818F0CDFDA36AF7
:1023C000990130D51B4818F0C7FD1E20A36ADA0119
:1023D00003D5194818F0C0FD1F20144CA36A1B0335
:1023E00003D5164818F0B8FD2120A36A590303D578
:1023F000134818F0B1FD22200C4CA36A9A0303D5B0
:10240000104818F0A9FD2320A36ADB0303D50E486A
:1024100018F0A2FD2420054A936A6FEA03436FEA8D
:102420001343936210BD1D20D0E700BF00ED00E014
:10243000AC360200C5360200D9360200F43602007E
:1024400013370200393702005437020070B5244CAC
:10245000064624480D4618F07FFDA36AD90435D5F9
:10246000214818F079FD1720A36A1A0503D51F48E3
:1024700018F072FD18201A4CA36A9B050FD51C4852
:1024800018F06AFDA16BA36A180407D5194818F063
:1024900063FD1EB1A36A23F40043A3621920104C0C
:1024A000A36A590503D5144818F056FD1A20A36AEB
:1024B000DA050DD5114818F04FFD1B20084A936A24
:1024C00043F47F43936200232B7070BD1620CBE74B
:1024D000A36A9B04F2D50A4818F03EFD1C20EDE7E4
:1024E00000ED00E080370200973702001836020046
:1024F000A9370200C3370200D9370200F5370200BE
:102500007C3602002DE9F0415D4B5F688AB00446DD
:10251000C7F30806002585F31188BFF36F8F02F01B
:102520007F43B3F17F4F06D102F00C03082B13D188
:10253000544818F011FD00252C464FF00008F31EFA
:102540008DF80780092B00F28C80DFE803F00A8009
:10255000847C8A8A8A8A8A8810074CBF0C460125A7
:10256000EBE74948464E18F0F7FC8DF80780F36A10
:102570009A0704D5454818F0EFFC00232AE0F36AD7
:10258000002B01DA4248F6E7F36A5B00F5D54148D3
:1025900018F0E2FC7369A26943F480737361BFF3BE
:1025A0004F8FBFF36F8F32F8023C726922F4807252
:1025B0007261BFF34F8FBFF36F8F03F47F42B2F5A9
:1025C0005F4F27D1DBB2022B24D12168324818F0AB
:1025D000C3FC23689DF80720CAB902AE04F12007A6
:1025E00020686168324603C20834BC421646F7D1FF
:1025F000099A002D41D0C2F3080121B96FEA522295
:102600006FEA4222099202A91846FFF707FE0AB0B4
:10261000BDE8F0811A4B9A6AD2B232B10DF10702CD
:1026200001212046FFF74EFE0FE09A6A12F47F4F19
:1026300005D00DF107010120FFF708FF05E09B6AB7
:10264000B3F5803F99D3FFF7B5FE0346C2E70DF11E
:1026500007020021E5E70DF107010020ECE70F4834
:1026600089E70F4B0F49104817F4F87FA6F11002C5
:1026700008BF194618F070FC7FE76FF30802C1E746
:1026800000ED00E03C3802006838020080380200AB
:10269000A2380200B1380200D1380200EE38020040
:1026A0000E3802002338020013390200044B5A6925
:1026B00042F010025A615A6922F008025A617047CA
:1026C00000ED00E0EFF30880EFF3098101B57246F9
:1026D000FFF718FF01BD00BF0B4880F3088814F016
:1026E00083FC202080F3118808484FF404614018CF
:1026F00080F30988EFF314800221084380F31488E3
:10270000BFF36F8F00F06CF8809A0020C07000203B
:102710001EF0040F0CBFEFF30880EFF3098081690E
:1027200011F8021C0229FFD001B5724618F0A9FE6B
:1027300001BD00BF40B2002807DB044A4109012364
:1027400000F01F00834042F82130704700E100E0B4
:1027500040B200280CDB4309064900F01F0020337B
:102760000122824041F82320BFF34F8FBFF36F8FC8
:10277000704700BF00E100E0054B420900F01F0078
:1027800053F82220012303FA00F01040704700BFE5
:1027900000E100E040B20028A8BF00F1604001F174
:1027A0000101B8BF064B4FEA4111ACBF00F56140D3
:1027B00000F00F00C9B2B4BF195480F8001370477D
:1027C00014ED00E0044B054A23F07F039360BFF350
:1027D0004F8FBFF36F8F70470000000000ED00E0E7
:1027E00008B5FFF7EFFF0B4AD2F8883023F47003E7
:1027F000C2F88830EFF3148323F0040383F31488C2
:10280000BFF36F8FFFF7E2FCFFF7ECFC00F0B0F8CE
:1028100015F0DAF800ED00E042F8203C009B42F8A9
:102820001C3C0A49019B42F8183C029B42F8143CAC
:1028300021F001014FF0807342F8043C42F8081C7B
:102840000023203A02654367704700BF99210000CA
:10285000094A0346906870B113F1160F006E05D057
:10286000A0F14002934205D3834203D2814228BFA4
:102870000020704700207047A840002008B515468A
:102880000B4A0C4B9060026F1A600E4600F0A0F8E5
:102890002C4686F309880020034B984720460021E8
:1028A00000220023014C2047A7B401009921000019
:1028B000A840002098130020014B10221A61704795
:1028C00000ED00E0054B5A699B689A421FBF044A1D
:1028D000536843F080535360704700BFA840002006
:1028E00000ED00E0084B9B6883420BD1EFF30583BA
:1028F00043B1064B5A6842F080525A605A6A22F439
:1029000000425A621DF0F6BEA840002000ED00E033
:1029100014498A684FF030001044EFF3098C80E8C6
:10292000F01F202080F31288BFF36F8F0E4F4FF0FF
:1029300000664A698A603E60106F0C4C2060506FE0
:102940000023536780F3118804B5104600F040F867
:10295000BDE8044002F1300090E8F01F8CF30988D4
:1029600070470000A840002004ED00E0981300200C
:10297000044800232021C2180133272B82F80013BA
:10298000F9D1704700E100E008B5EFF30583064A8E
:10299000103B02EBC30152F8330049688847BDE899
:1029A0000840FFF78FBF00BF5C1F020001480068AE
:1029B0007047000098130020024B034A034801218E
:1029C00000F076B80000012000000020C8220200BC
:1029D000036E054A403B1360044B4021C2E90113DA
:1029E0001046012100F06EB89C13002000000B156A
:1029F000084AC2F898000B6823F01F03034343F012
:102A00001003C2F89C308B6843F00103C2F8A03079
:102A1000704700BF00ED00E02DE9F043DFF8608073
:102A200085B00E461F4604464FF00009B14523DA33
:102A30006068D8B13FB1411E08421BD11F2819D987
:102A40002368194216D12368019318F04FFDA3683B
:102A500003430393D8F89050C5F30725D0B2013D46
:102A6000A84207D801A9FFF7C3FF421C09F10109D9
:102A70000C34DBE76FF01502104605B0BDE8F083BB
:102A800000ED00E0044B0522C3F89420BFF34F8F04
:102A9000BFF36F8F704700BF00ED00E0BFF35F8FA3
:102AA000024B0022C3F89420704700BF00ED00E005
:102AB00010B5034C01232278FFF7AEFF207010BD44
:102AC0009E47002008B50B4A00231278FFF7A4FFA9
:102AD00010F1160F07D0084A0021D2F89030C3F346
:102AE0000723984200DB08BDC2F89800C2F8A01086
:102AF0000130F2E79E47002000ED00E02DE9F043B1
:102B00005A4B5B4DD3F890302C68C3F307239C429B
:102B100085B000F2A780FFF7C1FF00200C26844299
:102B20001AD1544EDFF8449134706846FFF7A2FA88
:102B3000514C524D80460027B84514D133784B494B
:102B40000020D1F89020C2F307229342C0F2848083
:102B5000FFF798FF002045E0696806FB0011FFF7CA
:102B600047FF0130DBE7009800EB07114FEA071C35
:102B7000CB682340B3F5000F4DD00AD8B3F5001F42
:102B800033D0B3F5800F3BD0B3F5801F13D001379E
:102B9000D2E7B3F1007F47D0B3F1805F4DD0B3F1FE
:102BA000807FF4D150F80C3088684A6818F09EFC99
:102BB00040F0887009E050F80C3088684A6818F0D6
:102BC00095FC40F0885040F43020CDE9012303907B
:102BD000D9F890303078C3F30723013B984234D9B9
:102BE0006FF0150005B0BDE8F08350F80C30886830
:102BF0004A6818F07BFC40F0885040F40020E4E77D
:102C000050F80C3088684A6818F070FC40F000708A
:102C100040F40030D9E750F80C3088684A6818F062
:102C200065FC40F08270D0E750F80C3088684A6844
:102C300018F05CFC40F48020C7E750F80C3088683E
:102C40004A6818F053FC2843BFE701A9FFF7D0FEFC
:102C50003378013333709AE7C1F89830C1F8A00097
:102C600001336EE74FF0FF30BCE700BF00ED00E03E
:102C7000D42202009E4700200000F0FF0000021155
:102C800008B5024B1B689847002008BDA813002018
:102C9000034B044A1860937843F002039370704723
:102CA000A8130020B001002008B5054818F054F919
:102CB000002383F31188BFF36F8F0423184602DFCC
:102CC0003639020008B50649064821F00701C1F16E
:102CD000005202F5803218F0FCF8002008BD00BF59
:102CE00003D90020AC13002003484FF0FF324FF00F
:102CF000FF3314F023BF00BFC0010020014814F0CF
:102D00008FBF00BFC001002038B50546FFF7ECFFBC
:102D100008482A46082118F06BF8044628B925B15E
:102D2000FFF744FE044B0C221A50FFF7E7FF204642
:102D300038BD00BFAC1300200C00000010B50446E5
:102D4000FFF7D2FF2146034817F0CCFFBDE8104043
:102D5000FFF7D4BFAC13002070B5A0FB015434B909
:102D60002846FFF7D1FF064640B9304670BDFFF751
:102D70001DFE054B0C221A500026F6E72A46214676
:102D80001EF0CDFFF1E700BF0C00000070B54169F7
:102D9000867A0B4D044659B1437ADB0706D42423C7
:102DA00003FB0653DB691B689B689847002363613C
:102DB0002420214600FB0650BDE870401DF021BBD9
:102DC000A0050020024B242202FB0030704700BF08
:102DD000A0050020827A064B242101FB02331A6AE7
:102DE0001B7D1B33801A23F00303B0FBF3F0704705
:102DF000A005002038B5074B827A242404FB023357
:102E0000DB69D3E901240C601568FFF7E3FF04FBDD
:102E1000005038BDA00500202DE9F04385B00546DF
:102E20006846039190461C461DF05FFDDDE9006792
:102E3000EFF31189202383F31288BFF36F8F6B8A1E
:102E4000002B41D02A8A9A4225D900220023284605
:102E500014F036FF0446F0B189F31188BFF36F8F89
:102E6000039B002B41D032463B4668461DF062FD75
:102E7000A27A264B242101FB02332046DB691B6822
:102E800003A91D68DDE90023A847606170BB2046E7
:102E9000FFF77CFF24E0698A4B1E6B8289F311885F
:102EA000BFF36F8F2B7D2A8A2C6A1B3323F0030319
:102EB000521A02FB0344154B154AEB1A9B1053435D
:102EC000A3722B7DE372CBE789F31188BFF36F8F79
:102ED00023464246284614F0F3FE04460028BFD19C
:102EE0000024204605B0BDE8F0836361012300257E
:102EF0002381039B6382E27A6560294604F118000E
:102F00001EF00DFF63692582E360EAE7A00500205B
:102F1000398EE338F8B5124D0024242600B9F8BDE7
:102F200000F108024768BFF35B8F52E8003F591E6B
:102F300042E8001CBCF1000FF7D1BFF35B8FDBB29E
:102F4000012BECD1837AC46006FB035344609B6978
:102F500013B198473846E1E7FFF718FFFAE700BFDB
:102F6000A0050020044A0123C2F840354FF08042FA
:102F70000020C2F87835704700E0014048B1054BA9
:102F8000054A1B68B3FBF2F35843044B43F00103BB
:102F900018477047F004002040420F00E021020073
:102FA000BFF34F8F0549064BCA6802F4E062134332
:102FB000CB60BFF34F8F00BFFDE700BF00ED00E027
:102FC0000400FA0508B5054A054B136010463C237A
:102FD000536014F033F9002008BD00BFB81300207F
:102FE0003FC00F0038B5064C064DAC4201D300205F
:102FF00038BD54F8043B002BF7D09847F5E700BFE5
:103000005C21020068210200084B0246186808B1E2
:10301000036800B9704741899142FBD01BB1196820
:1030200018460B46F5E71946FAE700BFC013002023
:10303000094B0246186868B1036800B970474189B6
:10304000914206D01BB1196818460B46F5E71946A0
:10305000FAE7C068704700BFC01300200023036078
:10306000044B5A6812B9C3E90000704710605860F9
:10307000704700BFC01300202DE9F04F002391B02E
:10308000CDE90C3301F10C0305460E460B93348A4F
:1030900064B9A3462968304618F0CDFC204629685B
:1030A00018F0C9FC584611B0BDE8F08F072C40F26B
:1030B0003981F368186859680CAA03C29A88079284
:1030C0009A790A92DA795B880B9805925BBA9BB27F
:1030D0000893079B5BBA9BB20821099318F0C8FAC2
:1030E000338A089A9342C0F021819DF830300693CC
:1030F00013F0050740F01D812968304618F087FC61
:103100000446002800F01881686840F8046B338A90
:10311000CDE9017701220092F26804211CF062FFE0
:10312000A868214618F0D4FA9DF83090D5F808A088
:10313000C9F3C109B9F1010FCAF84C7000F2EC8073
:103140000998FFF761FF002800F0D580059918F075
:10315000AFFA002800F0CF809DF8307017F0070715
:1031600055D0022F61D04FF0030BA868214618F00C
:10317000AFFAD5F8088008F10407022138461CF0A0
:10318000F1FF002840F0BA804FF0000902213846D4
:103190001CF0F0FF10EA090F3FF47CAFD8E90010F3
:1031A000CA68099BA0EB020E9DF83020A1F810E040
:1031B00012F0070FC2F3C10214BF4FF0030C4FF01F
:1031C000010C012AA96828BF01224CEAC20CAEF109
:1031D00008000A9A09688DF83E2040BA059A8DF8D1
:1031E0003F2093FA93F80027ADF83870ADF83A0015
:1031F0008DF838C0ADF83C800EAACB6803CA1860C1
:1032000059602A682046126A90473C4642E7D0F847
:103210000080B8F1000F6ED0A8680F2104301CF0B8
:10322000A1FF28B94FF0070B9FE7D0F80480F0E723
:103230002846C0478346A8680F2104301CF09AFF37
:10324000804618B9BBF1000F8FD1EBE7BBF1000F3F
:103250008BD1BAF84EB0BBF1000F19D0069B13F01A
:10326000180F15D1BAF84C00FFF7E2FE034600280C
:1032700055D0584698478346002831D0B8F1000F02
:103280003FF408AF002C7FF470AF344600266CE7A3
:10329000DAE90013C8681B1A0B82DAF800301B8ABF
:1032A000083B5BBA002F4FF00002ADF83A30079BA5
:1032B000ADF83820ADF83C30AA680A9B8DF83E3056
:1032C00014BF03210121059B12688DF83F3069F37B
:1032D000C4018DF838100EAB03CBD268106051607A
:1032E0002B6820461B6A9847834640BB08990B9879
:1032F00018F0BEF9CBE64FF0080B36E71149022271
:1033000038461CF014FF00283FF43EAF59463846BB
:103310001CF0F1FE814639E74FF00D0B25E74FF029
:10332000010B22E74FF0090B0024B3E64FF0090B25
:10333000ABE74FF0080BA8E74FF0020BA5E700241E
:103340009CE700BF3F39020070B504460E461546A3
:103350008AB3A0F84810A0F84A20184903221CF0AC
:10336000E6FE18B9002000F0010070BD02212046E1
:103370001CF0F8FE0028F5D01149052220461CF06B
:10338000D6FE0028EED0314620461CF0BEFE0028B6
:10339000E8D00C49022220461CF0C9FE0028E1D0EA
:1033A000294620461CF0B1FE0028DBD00221204631
:1033B0001CF0E0FED7E70120D7E700BF423902004A
:1033C000463902003F39020070B50C4615461E46CC
:1033D00048B1094833462A46214618F015F8002816
:1033E00018BF0C2070BD054B0348197818F018F869
:1033F0000028EED00A20F5E7C8130020F4150020BD
:103400007FB50C4600283AD1214B69461878FEF763
:1034100037FE002835D1009BDE68002E33D05B6874
:10342000013B191901AA30461BF0D9FA014660BBCD
:10343000DDE90005029B1D444368ED1A2A4617F09A
:1034400002FF044618B10D24204604B070BD009B55
:1034500098681BF018FAA842F6D3009B59680144FB
:1034600001AA30461BF0BBFA0098019943688268B4
:10347000C91A521A17F0E7FE0028E5D0E3E7142432
:10348000E2E70A24E0E71224DEE71324DCE700BFCA
:10349000F41500207FB505460C4618220021204671
:1034A0001EF03DFC6B68581C7CD0002B69D12A694A
:1034B0001F2A5AD9AA68511C59D0C4E90023EE68C2
:1034C000394B32689A4254D1AA69202A53D85AB14A
:1034D00036480368013307D0037B9A4204D16969F7
:1034E0000D301EF024FCB0B1002018F01EFA20B1FF
:1034F000012018F01AFA50B9012018F08EF9694627
:10350000E060C0B2FEF7BCFD38B10A2003E04FF026
:10351000FF33E360092004B070BD009BAA689B687C
:103520009A422AD82B7F7BB9207B01A9FEF7A8FD00
:10353000B8B10A20B0FA80F0400960742B69A3602A
:10354000012323740020E6E702A818F02CFAB0B992
:1035500006F1140102A818F068F90130E4D01B202C
:10356000D9E7019818F023F9E4E71620D3E71520EE
:10357000D1E71720CFE71820CDE71E20CBE71A2090
:10358000C9E70A4A13689168E36000232160636019
:103590006B6852689342D5D12A6913449942CDD2BF
:1035A0001F20B8E71420B6E73DB8F396F4150020C5
:1035B000F0B595B00F4620230293044615466B469E
:1035C0000CAA03A93846019200F048FA06460028E2
:1035D00040F0918004340F2120461CF0C3FD10B947
:1035E000002015B0F0BD4549042220461CF09FFD87
:1035F0000028F5D007F0010120461CF086FD0028C8
:10360000EED03F49072220461CF091FD0028E7D06C
:1036100005A903A800F0C8F9002864DA3949052291
:1036200020461CF084FD0028DAD0374904222046C9
:103630001CF07DFD0028D3D001A920461CF071FDAF
:103640000028CDD03149082220461CF070FD00280A
:10365000C6D09DF80010C1F3001181F0010101F006
:10366000010120461CF09AFD0028B9D02849072204
:1036700020461CF05CFD0028B2D0C5F34001204676
:103680001CF08CFD0028ABD02249092220461CF0FA
:103690004EFD0028A4D0C5F3800120461CF07EFD1D
:1036A00000289DD01C49062220461CF040FD002821
:1036B00096D005F0010120461CF070FD00288FD047
:1036C0001649092220461CF032FD002888D0C5F397
:1036D000C00120461CF062FD002881D00F21204649
:1036E0001CF048FD7DE7192205A920468DF82C60C5
:1036F0001CF026FD97E7012073E700BF4C3902005C
:1037000051390200593902005F3902006439020060
:103710006D390200753902007F39020086390200D6
:103720002DE9F743866834490436074606223046B9
:103730001CF0FDFC38B918F014F918F013F9072043
:1037400003B0BDE8F083022130461CF007FD0446BB
:1037500018F007F9002CF0D000240DF107012046E5
:103760008DF8074018F0C2F88046204618F0FBF8A4
:103770009DF80730022B054680F001092CD18045C9
:103780004FF0010801D01D4AD456B8684D452ADBD8
:1037900022464946FFF70CFF0028CED04246294674
:1037A000B868FFF705FF0028C7D0022130461CF09B
:1037B000DDFC0028C1D012490B2230461CF0B7FCBA
:1037C0000028BAD0002130461CF095FC0028B4D067
:1037D00018F0C8F80020B3E780454FF00508D4D0B2
:1037E000022BD2D8CFE742462946FFF7E1FE002858
:1037F000A3D022464946D3E790390200073C020095
:10380000973902002DE9F3414FEA6008044640462B
:103810000E4618F0A8F8002305460DF103014046B6
:103820008DF8033018F062F807468EB118F09DF855
:1038300080453ED1A5423CD19DF8030001280BD123
:10384000A6B9A74214BF1C20002002B0BDE8F08139
:10385000A542F1D12120F8E768B91EB1A742F4D002
:10386000A54206E0A54203D1AF420AD01C20ECE7F6
:10387000A74206D1FAE7022803D1002EF6D0A742CC
:1038800019D0204617F0C9FF01A9C0B2FEF7F8FB16
:1038900058B92B1B59425941019832461CF063F824
:1038A000042804D8054B1856CFE70A20CDE701209D
:1038B000CBE72020C9E70020C7E700BF0A3C020091
:1038C000F0B597B034490C9104210D91334902AA07
:1038D000CDE90E12324A119206460722D0E90104C0
:1038E0001292304A139200230DF10302CDE9023304
:1038F0008DF8033001938DF8403014928DF85430D8
:10390000022201AB0CA9043017F0FBFE054600288B
:103910003FD118F026F8039B04346BB99DF80330AF
:1039200063B118F022F818F01EF89DF80310FFF7A5
:1039300069FF10B382B202E0202B0AD01822204681
:103940000121FFF701FD044618F00CF8F4B9072532
:103950001CE0029B04AA03F1200C18685968174662
:1039600003C7083363453A46F7D1002104A817F08E
:10397000FEFF0028D9DA0822E1E73046FFF7D0FE43
:1039800010B117F0EFFFE2E717F0ECFF284617B091
:10399000F0BD0325FAE700BF5F3902009DFD01007D
:1039A000A33902006DFE010073B54388019343788B
:1039B00000930E4603780C4A05461921304616F04E
:1039C00061FE041E03DA4FF0FF3002B070BD6B6879
:1039D0003BB1064AC4F11901301916F053FE031E1B
:1039E000F1DBE018F1E700BFAB390200B7390200A4
:1039F000033880B219289ABF014B1856012070472E
:103A00000F3C020008B52C22044800211EF087F963
:103A1000024A4FF0FF3342F8043C08BDF81500207D
:103A20000148FFF71BBB00BF4402002010B5041D76
:103A30000849032220461CF07AFB08B9072010BD74
:103A4000054B204659681CF06AFB0028F6D0002080
:103A5000F5E700BFBB390200F41500202DE9F04363
:103A60008BB00C460DF10301054616461F4617F0B4
:103A70002AFF0146002840F08380202302AA28461E
:103A800017F009FF00284BD19DF8038024B10822CC
:103A9000414620461EF043F902983C4B984237D1EC
:103AA0001CB107AB03CB206061600FB1069B3B608C
:103AB000059BBDF810401C4404230DEB0302214676
:103AC000284617F0E8FE40B9BDF8042046F6081372
:103AD0009A4204BFBDF80630E41804230DEB03023C
:103AE0002146284617F0D7FE0746E0B9BDF8042066
:103AF00046F607139A4216D1BDF806800434A04456
:103B000004F10409C14510D987F00107F80007E066
:103B10004FF0013303FB08F8404514BF1720032082
:103B20000BB0BDE8F0830420FAE704230DEB030299
:103B30002146284617F0AFFE0028F1D1BDF8042039
:103B4000BDF80630FF2A05D14FF6FF72934205D12A
:103B50000520E5E7102A01D1202B02D004331C44B4
:103B6000CEE77FB924340EB90127C9E744450BD805
:103B700032464946284617F08EFE0028F4D0CFE79B
:103B80000220CDE70620CBE70720C9E73DB8F39632
:103B900070B58AB01B4A0592D0E90105042206924D
:103BA000194A07920023012601AACDE90163089270
:103BB0008DF82430324602AB05A9043017F0A1FD80
:103BC0000446E8B90346024603A901980435FFF705
:103BD00045FF58B9019817F0A8FE38B10922012114
:103BE0002846FFF7B1FB20460AB070BD019817F0D8
:103BF00033FE0646FFF706FF002EF4D0B2B2EEE722
:103C00000324F0E74C39020093FD01002DE9F04F49
:103C1000B7B0002408AFD0E9016A202221468046CF
:103C2000384601941EF07BF84FF0FF33CDE909339D
:103C3000644B189305231993634B8DF87040CDE9BD
:103C40001A37624B1D9304231E930BAA604B1F93DC
:103C500020922E935F4A22920DAB5F4A2F935F4BC7
:103C600024920AA92992319309AA072325912A921D
:103C70005B495C4A32935C4B3393032504360FABAC
:103C8000CDE92715CDE92C253493304601AB06222A
:103C900018A98DF8844023958DF898408DF8AC4094
:103CA0008DF8C0408DF8D44017F02BFD0646002853
:103CB00040F0868002A93846FFF7ECFB0AF1040ABF
:103CC0000546E0B182B201215046FFF73DFB344684
:103CD0008146464BD3E901239A4201D0002D68D09A
:103CE000002310AA19460120FFF7B8FE002D60D06E
:103CF000FFF788FEB9F1000F08BF072609E09DF81D
:103D00001890B9F1000F08D1D8F80800FFF78EFE1F
:103D10000646304637B0BDE8F08F344F059B099C0E
:103D20003B60029BBB601CBBDDF838B00D9978602E
:103D30005A4607F10D0087F80CB01DF0C9FF0BF1D2
:103D40000D00CBF12002294638441DF0E8FF9DF814
:103D500019306BB10A992846FFF752FB834638B1F8
:103D600082B201215046FFF7EFFA5D468146B0E787
:103D70000C9C002CADD07B680B9909981C44BB6847
:103D8000E21A53425341049AFFF71EFB054640B91D
:103D90007B68049ABC6813447B60E31A5C425C4114
:103DA00097E782B201215046FFF7CEFA4C46814692
:103DB0008FE7D8F80800FFF739FE002C9AD097E774
:103DC0002E46A6E7BF39020093FD0100C539020067
:103DD0009DFD0100CA39020099FD0100D23902009F
:103DE000BB390200CE3902006DFE0100F41500203F
:103DF0000148FFF733B900BF5402002008B54FF463
:103E000000520023024814F0DDF9002008BD00BF75
:103E100000000020F0B589B0D0E90145134A0392B3
:103E2000134A0023012701AECDE90133CDE9052670
:103E30008DF81C30201D6B463A4603A9049717F0F5
:103E400060FC044678B904350A493A4628461CF015
:103E50006EF920B1314628461CF066F900B90724F6
:103E6000204609B0F0BD0324FAE700BF7D39020007
:103E7000B5FD01004439020007B508481CF0D9FB24
:103E8000074B00930749054803234FF4006214F0E1
:103E90002FF9002003B05DF804FB00BFC00600202E
:103EA000742302008048002002480022002317F0FB
:103EB00047BB00BF7806002010B5036A044643B133
:103EC00005491CF051FB04F110001CF064FA0020BD
:103ED00010BD6FF01500FBE7DDB9010010B5044619
:103EE00010301CF07BFA21460248BDE810401CF05F
:103EF00066BB00BFC0060020F0B5036B85B004466A
:103F00000E4603B31CF039FB10F0050F02D020461B
:103F10001CF080FB68461CF03EFA04F110070022FA
:103F20000023384613F0CCFE054670B9002200236A
:103F3000684613F0C5FE0146A8B923691BB10C48B9
:103F400021461CF03CFB05B0F0BD236B3146984781
:103F500020B92146284617F06EFDE0E7294668465D
:103F60001CF03CFADBE738461CF038FADEE700BF0D
:103F7000C0060020034B1A6882420CBF184600207E
:103F8000704700BF6007002010B50146FFF7F2FF41
:103F900004460748FFF7B0FF4CB12046002384F8E1
:103FA000693040F86C3BBDE8104013F0BFBE10BD57
:103FB0002416002008B50B4B01221A700A48002174
:103FC0001CF043FA094A0A4B13620A4B53620A4B2C
:103FD00093620A4BD3620A4B1363BDE80840104654
:103FE000FFF76ABF9F470020CC070020241600205F
:103FF0000540000093BA01005FBA010053BA010006
:104000006DBA01002DE9F04F91B00446182200214D
:1040100001A81DF084FE3B4B0293D4F81890E3688E
:104020000393394B0593B9F1000F0BD1052604F129
:10403000180017F00EFD204617F0E7FC304611B0CF
:10404000BDE8F08F07A9484602F076FB0646002837
:10405000ECD19DF83C30022BE8D1204617F019FD39
:10406000054608B90126E2E74846FFF783FF074601
:104070000028DBD090F86930002BD7D0227F9A42FD
:10408000D4D100F16C0B584613F098FEB246B046FE
:10409000238A4345CBD997F86920002AC6D0217FCF
:1040A0009142C3D108EB05029A42C4BFA3EB0803B7
:1040B0009DB201A94846ADF8105004F037F910F14F
:1040C0000C0F09D1BAF1000F03D1132D18D9C5F384
:1040D0004F051CF02EFBDBE70028C3D1E26808EB9C
:1040E00005031FFA83F812FA83F303934FF0FF32AC
:1040F0004FF0FF33584613F03BFE4FF0010AC7E77D
:10410000022694E7A8230200A3BA01002DE9F0419A
:10411000074690461D46FFF72DFF064670B1FFF794
:10412000C3FE044650B1028A438A41699B1AC268A1
:10413000521A9B1A9D4205D917F067FC6FF01000C8
:10414000BDE8F0812A4641460C3017F06FFAA761AE
:1041500096F86930034823772146FFF7BFFE2846CB
:10416000EEE700BF2416002011B9094A136803B115
:104170007047084910600B7882F869300133DBB270
:10418000012B38BF01230B7002F16C0013F016BE37
:10419000600700209F47002070B50B7892B006465C
:1041A0000C4607AD032B31D8DFE803F0022A2C2E92
:1041B00019492846FBF7AEFF059563780493A37869
:1041C0000393E37802932379019363790093A379AE
:1041D000124A1E210AA816F055FA10AD0AAB324653
:1041E0001C4603CCAC4210605160234602F1080229
:1041F000F6D120681060A3889380304612B070BD5D
:104200000749D6E70749D4E70749D2E7074A0A2111
:10421000284616F037FACFE7E53902000E3A0200D9
:10422000EC390200F3390200FD390200073A0200BE
:1042300010B586B0094B0A4803930024CDE9044425
:104240001CF0F7F903AB0093064905480A234FF425
:10425000B06213F04DFF204606B010BD313A0200A7
:10426000E0070020C05000200146014813F080BF45
:10427000E0070020014601481CF0A1B9E00700203A
:1042800030B50378012B11D0022B21D06BB9154B1F
:104290000A4603F1100453F8045B42F8045BA3429E
:1042A000F9D143881A0A8A70CB7030BD0D4B0A468B
:1042B00003F1100453F8045B42F8045BA342F9D104
:1042C00043681A0C180E4A700870C3F30722EAE715
:1042D00000F11003013913F8012901F8012F984268
:1042E000F9D1E2E7763C020010B517F095FC1CF01E
:1042F000F8F9044608B914F033FBBFF35B8F064BA3
:104300001B68BFF35B8F0BB10A2098471CB9BDE84F
:10431000104014F039BB10BD5C16002038B50446BF
:10432000084817F00DF9054648B1631EDBB21F2B94
:1043300096BF054A0021D15C0C3017F080F9284661
:1043400038BD00BF54060020863C02000F2810B57F
:104350000CD80D280CD90A4817F0F2F8044618B109
:1043600004210C3017F06BF9204610BD1328F2D051
:1043700009B10448F0E7BDE810400220FFF7CEBFC6
:104380009C060020E805002010B586B003AB002491
:1043900000930749074805944FF0FF334FF48062BC
:1043A000CDE9034413F0A4FE204606B010BD00BFC3
:1043B000805600208008002038B5C5682B7893B956
:1043C000B5F801400F21204601F0A2FEEB7805462A
:1043D00050B90A4A118831B96FEA04506FEA105097
:1043E0001080074A137038BD0373012101F0F8FDF6
:1043F0002846BDE8384001F0A3BD00BF7447002047
:10440000A047002010B5084C0146062294F86E0023
:1044100002F070F938B994F86E000449BDE8104014
:10442000052202F067B910BD300000205C3C02009C
:1044300010B5012104460C3017F022F92146034A39
:104440000078BDE81040002317F0CBBCBC2402006C
:1044500010B5012104460C3017F012F92146034A29
:104460000078BDE81040082317F0BBBC7C24020094
:1044700070B5314817F07DF8044600285AD000F195
:104480000C05284617F004F9022805D004282FD07F
:104490002046FEF73FFD21E0238A032BF8D90421B3
:1044A000284617F0EDF8FF22438806882276228AF4
:1044B000C6F30B009A426083EAD10F2101F028FE77
:1044C00005460028E4D001F03FFE320B207621465D
:1044D000284618F079F9284601F032FD174BD3F839
:1044E00034313BB3BDE87040154916481CF067B83D
:1044F0002846022117F0C4F8054600783E2812D05D
:1045000017F0FFFB10F002060DD10F4A0F491048BB
:104510004FF44A6316F02DFD86F31188BFF36F8FB9
:104520000323184602DF0B4A28780623214617F09A
:1045300058FCADE770BD00BF6401002030000020D2
:10454000A0020020200900203A3A02006E3A020040
:104550009C3A02004C24020010B5012104460C30A4
:1045600017F08EF82146034A0078BDE81040022378
:1045700017F037BC3C2402002DE9F0470C4614F03C
:10458000EFF9E5682B78022B64D0042B06D06FF08E
:10459000150414F0F9F92046BDE8F087B4F810804E
:1045A000B8F1020F04D82046FEF7B4FC0024F0E76F
:1045B00068783E2809D1B8F1030FF4D0EB78012BCD
:1045C00001D00A2B46D1032704E017F09AFB0746D7
:1045D000F8073FD504F10C0601213046D4F814A0A9
:1045E00017F046F80221304617F04AF88146007865
:1045F0003E2807D1E3681B78012B01D00A2B06D196
:10460000032614E017F07DFBC10706460FD4184AB5
:104610001849194841F26E1316F0ABFC002383F3DE
:104620001188BFF36F8F0323184602DF0226134A57
:1046300099F800000623214617F0D3FBB20712D5E4
:104640006369A4F81080A5EB0A0513FA85F5E56007
:10465000BB07ABD521460A4816F076FF09490A4840
:104660001BF0ADFFA2E72046FEF754FCF0E700BFC9
:104670003A3A0200B93A02009C3A02000C240200C5
:1046800064010020A0020020200900202DE9F0474D
:10469000884616468246002870D0BFF35B8FDFF84D
:1046A000E090002359E8004F49E80032002AF9D190
:1046B000BFF35B8F002C61D02046FEF78BFB314DA2
:1046C0000C2303FB005027464388534511D0BFF30A
:1046D0005B8F59E8003F49E80072002AF9D1BFF327
:1046E0005B8F002B4AD01F463846BDE8F047FEF7E7
:1046F00011BCA64208D0204616F01DFF328AF16890
:1047000004F10C0016F092FF2046FEF763FB0C2626
:1047100006FB00504368ABB1B8F1000F12D1204640
:10472000FEF758FB06FB005001214268536803F076
:104730001F00814010685B0900EB8300137ACBB146
:1047400017F0F1FA2046FEF745FB0C2606FB005059
:104750008368002BC8D02046FEF73CFB704305F869
:1047600000802046FEF736FB06FB0055A86813F0D4
:10477000DDFAB9E7C94317F04BFBE3E7BDE8F08783
:104780006001002060160020094BBFF35B8F1A68A0
:10479000BFF35B8F02F00B02BFF35B8F53E8001F88
:1047A00043E800200028F9D1BFF35B8F704700BFBA
:1047B0000401002010B5C1E900239DF808300B72F8
:1047C0000C46FEF707FB034B0C2202FB00335C6038
:1047D00010BD00BF60160020F8B502460B46104819
:1047E00016F0AEFE0446C0B104210C3016F00DFFE9
:1047F0002046FEF7EFFA0B4D0C2707FB0050002672
:1048000046802046FEF7E6FA07FB00508660204609
:10481000FEF7E0FA07FB00556E602046F8BD00BFCA
:10482000300600206016002029289ABF014B185C32
:1048300009207047A63C0200034B0146D3F84C0107
:1048400082689268104700BF3000002001480421B0
:1048500017F069BA0401002000487047D23A0200FC
:10486000014902481BF0ABBE9002002080080020E6
:1048700070B505460C4639B1CB684A699B1A032BC3
:104880000ED86FF0150509E04FF0FF304FF0FF3103
:10489000FFF7A2FF044618B96FF06805284670BDFF
:1048A0002046FEF797FA144B0C2202FB0033A618A1
:1048B000032130465D8016F0CAFE0580238A033B43
:1048C00083700121304616F0CAFE40F635439D4202
:1048D00009D12046FFF7B0FF05460028DED020466C
:1048E000FEF718FBDAE7054821461BF077FD0025A7
:1048F000FFF7B6FFD2E700BF601600206C01002072
:104900002DE9F043064685B017460C4669B94FF0CD
:10491000FF304FF0FF31FFF75FFF044658B96FF0EB
:104920006805284605B0BDE8F083887AFEF74AFAA4
:10493000304B834258D10122002168461BF085FD8F
:104940002046FEF747FADFF8B0900C2303FB0090F7
:10495000C0F808D0204616F022FE01463046FFF788
:1049600087FF054618B12046FEF7D4FAD9E74FF481
:10497000A0220023684613F0FBF9804690B14FF463
:10498000F1731E4A1E491F4816F0F3FA1E484246AC
:10499000314616F0EEFA85F31188BFF36F8F0323CB
:1049A000184602DF2046FEF715FA0C23584319F883
:1049B0000060AEB12046093EFEF7ACFA092E0CD8D5
:1049C000DFE806F0050B0B08150B0B0B0B126FF055
:1049D0006E05A6E76FF00C05A3E76FF00405A0E7EE
:1049E000002FC0D03C609CE76FF0150599E76FF091
:1049F0000B0596E730060020601600203A3A0200C8
:104A0000E03A02009C3A0200E93A02002DE9F04344
:104A1000504BB0F80180198848F4704291424FF031
:104A2000000685B0054602BF1E804B4B1E7800F085
:104A300095FAEB78012B08BF484B05F1040420469A
:104A40000CBF93F86E904FF0000917F0E1F802AF39
:104A50002146B0B1384617F0D0F8D5F81130CDF86E
:104A60000130B5F81530ADF805304FF00109EB789D
:104A7000012B1BD01321404617F07AFB05B0BDE88F
:104A8000F083484617F076FD0346006802909A8846
:104A90009B796868BA80BB71A288A37995F8049065
:104AA0000090ADF804208DF80630E0E73846FFF7B7
:104AB000A9FC04460028DDD00346B5F8012023F800
:104AC000702B0298BA79B98820679A719980B5F8E5
:104AD000173040F2E2425343C4F88830B5F8193039
:104AE000A4F89030B5F81B30A4F89230EB78E3705E
:104AF0000022012B22731CD18DF80090BDF80420F8
:104B00009DF806300098A4F87B2084F87D30C4F826
:104B1000770000F0F3FC237A1049C3EBC3035A1863
:104B2000CB58C4F87E309388A4F88230937984F807
:104B300084300721204601F053FA26B12673012163
:104B4000204601F04DFA204601F030FB204601F0EE
:104B5000F7F993E774470020A047002030000020B9
:104B600000B5C3681A7889B032B13C2A32D109B095
:104B70005DF804EB17F032BA8DF80020B3F801208D
:104B8000ADF80120DA788DF80320B3F80B20ADF8EA
:104B90001720B3F80D20ADF81920B3F80F20ADF8A9
:104BA0001B205A7C8DF81D20586801901A899B7A29
:104BB0008DF80A30094BADF8082068461A689B88C2
:104BC000CDF80B20ADF80F30CDF81120ADF8153031
:104BD000FFF71CFF09B05DF804FB00BF703C02004A
:104BE00010B5FBF705FC034B1B6813B1BDE8104083
:104BF000184710BD841600202DE9F3412A4D0646C2
:104C0000D5F84C011BF0FBFA002849D06FF00201E7
:104C100005F1D40017F0FCF8012117F084F810EA30
:104C2000010405D06FF07704204602B0BDE8F081A2
:104C30001E4B1E600A4605F590701BF006FC05F53C
:104C40009E701BF0A8FB1A481BF0F3FC194918488A
:104C500000946FF007034FF4805213F049FA16499D
:104C600013481BF044FDD5F84C010769D7F80080C4
:104C7000B8F1000FD6D1114B3B6083681B68984791
:104C8000044628B93EB902B0BDE8F041FBF7B0BB1D
:104C9000C7F80080C8E705F1C40013F023FAC3E7A2
:104CA0006FF01204C0E700BF30000020841600201F
:104CB00020090020C05A00202E3B02007945000048
:104CC00038B5032104460C3016F0DAFC0346B0F880
:104CD000010040F6354290420DD01D78E36822462F
:104CE0001978FFF7D3FC35B1034813F01FF8BDE87E
:104CF0003840FFF7B5BD38BD5001002038B513F07E
:104D00002FFE2D4DD5F83C31002B52D00022002330
:104D100005F5907013F02CF800284AD100220023EA
:104D200005F59E7012F0CCFF044668B9234A244969
:104D300024484FF44B6316F01CF984F31188BFF339
:104D40006F8F0323184602DFD5F8303173B1BFF3FC
:104D50005B8F1D4B002253E8000F43E80021002920
:104D6000F9D1BFF35B8F08B1FEF7D4F8204616F0F7
:104D700016FCC5F830012046FFF75EFD98B11348D8
:104D800012F0D4FF2046FEF725F8114B0C2202FB4F
:104D900000301F2140882246FFF778FC2046FEF7AE
:104DA000B9F8FFF75DFDFFF75BFDBDE8384013F094
:104DB000EBBD01F00BFAF8E7300000203A3A0200B0
:104DC000373B02009C3A02006001002050010020A5
:104DD0006016002038B5042104460C3016F050FC53
:104DE0004578017840882246FFF750FC35B10448E9
:104DF00012F09CFFBDE83840FFF732BD38BD00BF60
:104E00005001002070B54FF0FF320D464FF0FF33D8
:104E100000210646FFF79AFA044660B90A4A0B4990
:104E20000B481A2316F0A5F884F31188BFF36F8F8F
:104E30000323184602DF022104F10C0016F0F0FBF8
:104E400006704570204670BD3B3B0200373B0200B8
:104E50009C3A0200F8B50A4DEF7906460024E3B209
:104E60009F4202D86FF0010007E02946304617F054
:104E7000BEFA0735631C08B12046F8BD1C46EEE7B4
:104E80003000002037B504460D4671B1124928465E
:104E900017F0ADFA48B91148C4EBC40429462044C0
:104EA00017F0ADFA002003B030BD684616F097FE4B
:104EB0000028F8D16846FFF7CDFF0028F5DA074B48
:104EC000C4EBC4001844694617F099FA002DE9D0E4
:104ED00001462846E4E700BF633C020030000020A2
:104EE00070B5134E0622314604461CF020FF0346DF
:104EF000C0B14FF0FF304FF0FF31FFF76DFC0546BA
:104F000090B1062221460C3016F090FB0022294673
:104F100042F20500FFF7F4FC034618B92068306040
:104F2000A288B280184670BD6FF06803FAE700BF30
:104F300098000020084BBFF35B8F53E800CF4CF480
:104F4000806C43E800C2002AF7D1BFF35B8F037A7D
:104F500019430172704700BF040100200A4BBFF3E0
:104F60005B8F53E8002F22F4806143E80010002893
:104F7000F7D1BFF35B8F530504D50449002202200B
:104F800004F020BA704700BF04010020D3C501001F
:104F900007B50023CDE9000304496A46022004F066
:104FA00011FA019803B05DF804FB00BFE7C40100EB
:104FB000F7B5044670B1404D95F8122195F81331BC
:104FC0000AB19A4208D2013385F81331237A43F0AB
:104FD0000403237203B0F0BD00210222084601F051
:104FE00089FB064648B120460121FFF7A3FF304662
:104FF00003B0BDE8F04000F0A3BF01462F4800F029
:1050000077FA95F81331B3B995F8132195F8123161
:105010009A421CD10022114642F22900FFF770FC8F
:1050200070B995F81331013385F81331237A43F0C1
:105030000403237204E0304617F025FA0028E3D079
:105040001F48002103B0BDE8F04000F051BA2246ED
:10505000671C12F82E0B394617F0D8F9064630BBFC
:1050600095F81331013385F81331237A43F00403A3
:10507000237295F8A7305B0719D53946684617F0B3
:10508000BEF901234FF0FF304FF0FF318DF80730AC
:10509000FFF7A2FB044650B1082269460C3016F017
:1050A000C5FA3246214642F24E00FFF729FC0120A4
:1050B00017F0E9F9C4E700BF3000002043C5010044
:1050C000B9C401002DE9F041044600B3364D95F80E
:1050D000122195F8133192B10132934210DC002174
:1050E0000222084601F006FB064690B12046022146
:1050F000FFF720FF3046BDE8F04100F021BF13B1BB
:10510000013B85F81331237A23F004032372BDE8B1
:10511000F0810146254800F0EBF9304617F0B3F96D
:10512000074688B995F8133195F812219A4217D29B
:10513000013B85F81331237A1D4923F0040302460D
:105140002372022004F03EF995F8133113B10120C7
:1051500017F099F9BDE8F0411648002100F0C8B9F0
:105160004FF0FF304FF0FF31FFF736FB04F101083D
:1051700006460028E8D007210C3016F051FA4146C7
:1051800017F03DF93A46314642F22800FFF7B8FBE6
:105190000028D9D195F81331013B85F81331237AD2
:1051A00023F004032372CFE73000002043C5010041
:1051B00071C40100B9C4010038B50D460649CC7967
:1051C00038B12B689C4228BF1C46C4EBC4021CF0BB
:1051D0007FFD2C6038BD00BF3000002070B5044654
:1051E00011B16FF0150070BDD8B1224917F0FFF86A
:1051F000B8B92046FFF72EFE002834DA23784BB9E1
:105200001D48C2797ABB214617F0F9F80123C37112
:105210001046E8E7012BE4D1A37903F0C003C02BCB
:10522000DFD1154DEB79012B20D0BFF35B8FD5F883
:10523000D430BFF35B8FDB0707D4002CD1D00D49EE
:10524000204617F0D4F80028CBD1EE792146731C04
:105250003046EB71FFF716FE08B93046C3E7EB792D
:10526000013BEB71BFE76FF07700BCE76FF00B001D
:10527000B9E700BF633C0200300000202DE9F34194
:105280000446D8B101AA002141F20900FFF738FB1A
:10529000054698B9019E1249D6F80C8008F101071D
:1052A000062238461CF043FD28B10E490622384636
:1052B0001CF03DFD30B93046FDF72CFE002002B059
:1052C000BDE8F081D8F80130C4F80130BB88A4F8FB
:1052D000053030462570FDF71DFE0120EFE700BFC9
:1052E000703C02006A3C020007B56846FFF7C6FF43
:1052F000044BD87118B169460020FFF7C3FD03B015
:105300005DF804FB30000020F0B5294DEE7989B03E
:10531000002E46D195F8C230DB0722D56A463146C9
:105320004FF60940FFF7ECFAD8B9DDF800C0DCF819
:105330000C406378012B1E4628BF012673B1A31CC5
:1053400002AA123418685968174603C70833A342E3
:105350003A46F7D1186838609B88BB806046FDF7F5
:10536000D9FDEE71002416260127EB79E0B29842B0
:1053700002D3B3B1002012E008AB06FB003369464C
:1053800053F8182C33F8143CCDF80120ADF8053053
:105390008DF80070FFF776FD01340028E5D009B0E4
:1053A000F0BD0021084609B0BDE8F040FFF716BF88
:1053B000300000202DE9F0411D460E4617460346F9
:1053C000002849D0002D47D00A0307D54C0743D405
:1053D00017F0E4F810BB01232B701FE0B10704782D
:1053E0001ED020492FB1B20603D591F8D82050061F
:1053F00035D5C4EBC40411F80480B8F1010F08D10D
:1054000001342144184617F0C1F838B985F80080F6
:1054100002E0B8F1000FF9D0A7B90020BDE8F08193
:10542000720716D50F49C4EBC4040F5D012F07D1D5
:105430000134214417F0AAF80028EFD12F7001E0C1
:10544000002FFBD0B306E8D52B7843F002032B7076
:10545000E3E717F0A3F8BEE76FF01500DEE76FF0A3
:105460008500DBE73000002010B50A4CE3790BB172
:10547000002010BDFFF738FF0028FAD1E379002B98
:10548000F6D1FFF741FF0028F3D1601CBDE81040C2
:10549000FFF726BD30000020F7B5CDE900016946D1
:1054A00042F208009DF8207016461D4617F0A1F83C
:1054B000044668B97FB9BFF35B8F0C4B53E8001FFC
:1054C00041F0040143E80012002AF7D1BFF35B8FDB
:1054D000204603B0F0BD694642F20900CDE90065FF
:1054E00017F087F80028E6D00446F1E758000020BE
:1054F00003460148184700BF480000200048704795
:10550000480000202DE9F04FD0F81090DFF890A26D
:1055100089B0B9F10004054602919346039318BF80
:105520000124BFF35B8FDAF80030BFF35B8F5A07BB
:1055300040F19181466873050CD56FF01504029B0C
:10554000002240F20110934540F08E81204609B0C0
:10555000BDE8F08FD0F81080B8F1000F01D0B70788
:10556000EBD0904F2878FB798342E6D9C0EBC0009E
:105570008D49072238441CF0DAFB0028DDD0B00743
:1055800006D197F86F30082B02D8AB689F2BD4D97F
:1055900016F0300F7ED0B8F1000FCED0F1067CD4DB
:1055A00006F46036B6F5603FC7D0284617F00DF810
:1055B00080460028C1D07D4EBFF35B8F3368BFF3B8
:1055C0005B8FDA0500F14A81BFF35B8FD6F8AC3010
:1055D000BFF35B8F5B0501D5FFF7C0FC6A68002352
:1055E000CDE90533CDF81B30AB68ADF8103012F4BF
:1055F000004FEB68ADF8123014BF06230723D00329
:1056000048BF03F00503910348BF03F0FB038DF887
:105610001D30BFF35B8F5AE8003F23F480734AE8E4
:105620000032002AF7D1BFF35B8F2B783B7687F8E7
:105630006E30224669685E480DF11503FFF7BAFE29
:10564000044600287FF47BAF5A4BB9F1000F31D0EC
:105650002A6911684AF8B31C9188998092799A71E5
:105660006B689A0728D0B9F1000F2CD013F0100FF7
:105670000CBF012304238DF814302B691A68CDF870
:1056800016209A88ADF81A209B798DF81C304FF0BF
:1056900000081BE0B8F1000F82D1D5E902239A423D
:1056A0003FF64BAF1F2A7FF648AFB3F5804F7FF62A
:1056B00077AF42E73C4ACCE79B0502D4039B002B23
:1056C00037D0022300E04B468DF814304FF0FF3006
:1056D0004FF0FF31FFF780F80446002800F0C1804A
:1056E0000F2204A90C3015F0A1FF2146002242F23E
:1056F0000600FFF705F9044600287FF420AFB9F152
:10570000000F1AD0686810F0030022D1074628481D
:10571000012116F0C8FF044600284FD0002F3FF4A7
:105720000EAF3846002100F05BFC384600F008FC64
:1057300005E703238DF81430A9E7129B039A02981A
:10574000CDF800805946FFF7A7FE04460028D9D0BF
:10575000F5E63C7E1449174887F86E4007221CF096
:10576000E6FA60B91449204600F07EFF074610B9FA
:105770006FF00B04E3E6052100F032FCC7E70D49AA
:10578000204617F037F900287FF4D7AE387E094954
:1057900000F06AFF07460028EAD00621ECE700BFC8
:1057A0000401002030000020633C0200580000206B
:1057B00048000020510000205C3C020017B1384630
:1057C00000F0BEFB6B68BFF35B8F9F0728D056E8E5
:1057D000003F43F4007346E80032002AF7D1BFF3DC
:1057E0005B8FBFF35B8FB8F1000F22D056E8003F0C
:1057F00043F4806346E80032002AF7D1BFF35B8FA1
:105800006B68BFF35B8F58071CD556E8003F43F425
:10581000805346E80032002AF7D1BFF35B8F8EE653
:1058200056E8003F23F4007346E80032002AD6D041
:10583000F6E756E8003F23F4806346E80032002A8A
:10584000DCD0F6E756E8003F23F4805346E8003208
:10585000002AE2D0F6E76FF00A0470E66FF07704F2
:105860006DE66FF068046AE61988814204D15968D0
:1058700011B10978C90702D40132083363E605493A
:1058800005481AF0DCFE4FF470220023024812F0A3
:10589000D1FC5BE6FDC601006000002010B51B4C8A
:1058A000204616F028FFBFF35B8F2369BFF35B8FA1
:1058B000DA05C3F3002027D5BFF35B8F2369BFF35D
:1058C0005B8F9B0516D504F10900114907221CF0D6
:1058D0002EFA034614F8180993B90E49052200F070
:1058E00009FF044630B10021017300F079FB204626
:1058F00000F026FBBDE810400448002116F0D3BE9E
:10590000062204F12101EAE710BD00BF4800002093
:10591000633C02005C3C020070B59AB01422002186
:1059200004A81CF0FCF947F21213ADF80C304FF448
:105930008073ADF80E30354B44F2010201A903A883
:10594000CDE9052313F0B4FC10B31F25304BBFF392
:105950005B8F53E8001F21F0010143E80012002A89
:10596000F7D1BFF35B8F2B4E12F0FAFF346804B10E
:10597000043C002D284D18BF0025002C3FD0236883
:105980000BB1284698476468002C38D0043CF6E7F1
:10599000019802AB412209A91BF01EFA0028D4D1BC
:1059A0001E4A0DF125030DF1650153F8040B42F871
:1059B000040B8B42F9D11A49019802AB20221BF04B
:1059C000B3F90028C1D101981BF066F905460028FB
:1059D000BBD11249104816F093FE1248203116F040
:1059E0008FFEBFF35B8F104B53E8001F41F0100197
:1059F00043E80012002AF7D1BFF35B8FA6E700232C
:105A0000C6E9003312F0C0FF1AB070BD00000209F1
:105A1000881600209016002001480020C147002071
:105A2000A1470020214800200401002030B5A7B084
:105A30001422002108A81CF072F904233D22002141
:105A400016A815931CF06BF947F21213ADF81C3031
:105A50004FF48073ADF81E30264B274944F2010203
:105A6000CDE9092307A805AB20221BF0DFF9D8B147
:105A70006FF0040412F074FF204B1D6885B1002004
:105A800018601F4BBFF35B8F53E8001F21F002012A
:105A900043E80012002AF7D1BFF35B8F24B3A84775
:105AA00012F072FF27B030BD164B0DF1550203F115
:105AB0004000194653F8044B42F8044B8342F9D195
:105AC00006AB02932023CDE900130A480599412330
:105AD00015AA1BF0FFFA0028CAD105981BF0DCF8C4
